{
  "contractName": "AssetTransfer",
  "abi": [
    {
      "inputs": [],
      "stateMutability": "nonpayable",
      "type": "constructor"
    },
    {
      "inputs": [
        {
          "internalType": "address",
          "name": "client",
          "type": "address"
        }
      ],
      "name": "registerClient",
      "outputs": [],
      "stateMutability": "nonpayable",
      "type": "function"
    },
    {
      "inputs": [
        {
          "internalType": "bytes",
          "name": "assetInfo",
          "type": "bytes"
        },
        {
          "internalType": "uint256",
          "name": "assetCost",
          "type": "uint256"
        },
        {
          "internalType": "bytes",
          "name": "transferAddress",
          "type": "bytes"
        }
      ],
      "name": "startTransfer",
      "outputs": [],
      "stateMutability": "nonpayable",
      "type": "function"
    },
    {
      "inputs": [
        {
          "internalType": "bytes",
          "name": "assetInfo",
          "type": "bytes"
        },
        {
          "internalType": "bytes",
          "name": "transferAddress",
          "type": "bytes"
        }
      ],
      "name": "sendTransfer",
      "outputs": [],
      "stateMutability": "payable",
      "type": "function",
      "payable": true
    },
    {
      "inputs": [
        {
          "internalType": "bytes",
          "name": "transferAddress",
          "type": "bytes"
        }
      ],
      "name": "confirmTransfer",
      "outputs": [],
      "stateMutability": "payable",
      "type": "function",
      "payable": true
    }
  ],
  "bytecode": "0x608060405234801561001057600080fd5b5033600260006101000a81548173ffffffffffffffffffffffffffffffffffffffff021916908373ffffffffffffffffffffffffffffffffffffffff160217905550611130806100616000396000f3fe60806040526004361061003f5760003560e01c806342a67b7f146100445780635a9a8fb0146100955780635caa71cd146101fe578063b8dc793c14610350575b600080fd5b34801561005057600080fd5b506100936004803603602081101561006757600080fd5b81019080803573ffffffffffffffffffffffffffffffffffffffff16906020019092919050505061040b565b005b3480156100a157600080fd5b506101fc600480360360608110156100b857600080fd5b81019080803590602001906401000000008111156100d557600080fd5b8201836020820111156100e757600080fd5b8035906020019184600183028401116401000000008311171561010957600080fd5b91908080601f016020809104026020016040519081016040528093929190818152602001838380828437600081840152601f19601f820116905080830192505050505050509192919290803590602001909291908035906020019064010000000081111561017657600080fd5b82018360208201111561018857600080fd5b803590602001918460018302840111640100000000831117156101aa57600080fd5b91908080601f016020809104026020016040519081016040528093929190818152602001838380828437600081840152601f19601f820116905080830192505050505050509192919290505050610528565b005b61034e6004803603604081101561021457600080fd5b810190808035906020019064010000000081111561023157600080fd5b82018360208201111561024357600080fd5b8035906020019184600183028401116401000000008311171561026557600080fd5b91908080601f016020809104026020016040519081016040528093929190818152602001838380828437600081840152601f19601f820116905080830192505050505050509192919290803590602001906401000000008111156102c857600080fd5b8201836020820111156102da57600080fd5b803590602001918460018302840111640100000000831117156102fc57600080fd5b91908080601f016020809104026020016040519081016040528093929190818152602001838380828437600081840152601f19601f8201169050808301925050505050505091929192905050506107da565b005b6104096004803603602081101561036657600080fd5b810190808035906020019064010000000081111561038357600080fd5b82018360208201111561039557600080fd5b803590602001918460018302840111640100000000831117156103b757600080fd5b91908080601f016020809104026020016040519081016040528093929190818152602001838380828437600081840152601f19601f820116905080830192505050505050509192919290505050610b8d565b005b600260009054906101000a900473ffffffffffffffffffffffffffffffffffffffff1673ffffffffffffffffffffffffffffffffffffffff163373ffffffffffffffffffffffffffffffffffffffff16146104ce576040517f08c379a000000000000000000000000000000000000000000000000000000000815260040180806020018281038252600d8152602001807f4163636573732044656e6965640000000000000000000000000000000000000081525060200191505060405180910390fd5b60018060008373ffffffffffffffffffffffffffffffffffffffff1673ffffffffffffffffffffffffffffffffffffffff16815260200190815260200160002060006101000a81548160ff02191690831515021790555050565b60011515600160003373ffffffffffffffffffffffffffffffffffffffff1673ffffffffffffffffffffffffffffffffffffffff16815260200190815260200160002060009054906101000a900460ff161515146105ee576040517f08c379a00000000000000000000000000000000000000000000000000000000081526004018080602001828103825260198152602001807f436c69656e74206d75737420626520726567697374657265640000000000000081525060200191505060405180910390fd5b6000816040518082805190602001908083835b602083106106245780518252602082019150602081019050602083039250610601565b6001836020036101000a038019825116818451168082178552505050505050905001915050908152602001604051809103902060020160019054906101000a900460ff16156106db576040517f08c379a00000000000000000000000000000000000000000000000000000000081526004018080602001828103825260178152602001807f5472616e7366657220616c72656164792061637469766500000000000000000081525060200191505060405180910390fd5b6040518060800160405280838152602001848152602001600015158152602001600115158152506000826040518082805190602001908083835b602083106107385780518252602082019150602081019050602083039250610715565b6001836020036101000a0380198251168184511680821785525050505050509050019150509081526020016040518091039020600082015181600001556020820151816001019080519060200190610791929190610fc5565b5060408201518160020160006101000a81548160ff02191690831515021790555060608201518160020160016101000a81548160ff021916908315150217905550905050505050565b60011515600160003373ffffffffffffffffffffffffffffffffffffffff1673ffffffffffffffffffffffffffffffffffffffff16815260200190815260200160002060009054906101000a900460ff161515146108a0576040517f08c379a00000000000000000000000000000000000000000000000000000000081526004018080602001828103825260198152602001807f436c69656e74206d75737420626520726567697374657265640000000000000081525060200191505060405180910390fd5b6108a8611045565b6000826040518082805190602001908083835b602083106108de57805182526020820191506020810190506020830392506108bb565b6001836020036101000a038019825116818451168082178552505050505050905001915050908152602001604051809103902060405180608001604052908160008201548152602001600182018054600181600116156101000203166002900480601f0160208091040260200160405190810160405280929190818152602001828054600181600116156101000203166002900480156109bf5780601f10610994576101008083540402835291602001916109bf565b820191906000526020600020905b8154815290600101906020018083116109a257829003601f168201915b505050505081526020016002820160009054906101000a900460ff161515151581526020016002820160019054906101000a900460ff1615151515815250509050348160000151148015610a1d5750610a1c816020015184610f0f565b5b8015610a3157506000151581604001511515145b610aa3576040517f08c379a00000000000000000000000000000000000000000000000000000000081526004018080602001828103825260178152602001807f5472616e7366657220646f6573206e6f7420657869737400000000000000000081525060200191505060405180910390fd5b6001816040019015159081151581525050806000836040518082805190602001908083835b60208310610aeb5780518252602082019150602081019050602083039250610ac8565b6001836020036101000a0380198251168184511680821785525050505050509050019150509081526020016040518091039020600082015181600001556020820151816001019080519060200190610b44929190610fc5565b5060408201518160020160006101000a81548160ff02191690831515021790555060608201518160020160016101000a81548160ff021916908315150217905550905050505050565b60011515600160003373ffffffffffffffffffffffffffffffffffffffff1673ffffffffffffffffffffffffffffffffffffffff16815260200190815260200160002060009054906101000a900460ff16151514610c53576040517f08c379a00000000000000000000000000000000000000000000000000000000081526004018080602001828103825260198152602001807f436c69656e74206d75737420626520726567697374657265640000000000000081525060200191505060405180910390fd5b610c5b611045565b6000826040518082805190602001908083835b60208310610c915780518252602082019150602081019050602083039250610c6e565b6001836020036101000a038019825116818451168082178552505050505050905001915050908152602001604051809103902060405180608001604052908160008201548152602001600182018054600181600116156101000203166002900480601f016020809104026020016040519081016040528092919081815260200182805460018160011615610100020316600290048015610d725780601f10610d4757610100808354040283529160200191610d72565b820191906000526020600020905b815481529060010190602001808311610d5557829003601f168201915b505050505081526020016002820160009054906101000a900460ff161515151581526020016002820160019054906101000a900460ff1615151515815250509050600115158160400151151514610e14576040517f08c379a00000000000000000000000000000000000000000000000000000000081526004018080602001828103825260248152602001806110d76024913960400191505060405180910390fd5b3373ffffffffffffffffffffffffffffffffffffffff166108fc82600001519081150290604051600060405180830381858888f19350505050158015610e5e573d6000803e3d6000fd5b506000826040518082805190602001908083835b60208310610e955780518252602082019150602081019050602083039250610e72565b6001836020036101000a0380198251168184511680821785525050505050509050019150509081526020016040518091039020600080820160009055600182016000610ee19190611071565b6002820160006101000a81549060ff02191690556002820160016101000a81549060ff021916905550505050565b60008151835114610f1f57600080fd5b60005b8351811015610fb957828181518110610f3757fe5b602001015160f81c60f81b7effffffffffffffffffffffffffffffffffffffffffffffffffffffffffffff1916848281518110610f7057fe5b602001015160f81c60f81b7effffffffffffffffffffffffffffffffffffffffffffffffffffffffffffff191614610fac576000915050610fbf565b8080600101915050610f22565b50600190505b92915050565b828054600181600116156101000203166002900490600052602060002090601f016020900481019282601f1061100657805160ff1916838001178555611034565b82800160010185558215611034579182015b82811115611033578251825591602001919060010190611018565b5b50905061104191906110b9565b5090565b604051806080016040528060008152602001606081526020016000151581526020016000151581525090565b50805460018160011615610100020316600290046000825580601f1061109757506110b6565b601f0160209004906000526020600020908101906110b591906110b9565b5b50565b5b808211156110d25760008160009055506001016110ba565b509056fe5472616e73666572206d75737420626520636f6d706c65746520746f20636f6e6669726da26469706673582212205cfb8eda0b8ac5fbd3f26c12ca7842ca71ca99cf1a321f7433ec51dc7a1e79f264736f6c63430007000033",
  "immutableReferences": {},
  "source": "// SPDX-License-Identifier: GPL-3.0\r\n\r\npragma solidity >=0.4.22 <0.9.0;\r\n\r\ncontract AssetTransfer {\r\n    struct transferInfo {\r\n        uint assetCost;\r\n        bytes assetInfo;\r\n        bool complete;\r\n        bool active;\r\n    }\r\n    mapping(bytes => transferInfo) private activeTransfers;\r\n    mapping(address => bool) private registeredClients;\r\n    address private admin;\r\n\r\n    modifier onlyAdmin() {\r\n        require(msg.sender == admin, \"Access Denied\");\r\n        _;\r\n    }\r\n    modifier isRegistered() {\r\n        require(registeredClients[msg.sender] == true, \"Client must be registered\");\r\n        _;\r\n    }\r\n\r\n    constructor() {\r\n        admin = msg.sender;\r\n    }\r\n    function registerClient(address client) public onlyAdmin {\r\n        registeredClients[client] = true;\r\n    }\r\n    function compareBytes(bytes memory a, bytes memory b) internal pure returns (bool) {\r\n        require(a.length == b.length);\r\n\r\n        for(uint i = 0; i < a.length; i++) {\r\n            if(a[i] != b[i]) {\r\n                return false;\r\n            }\r\n        }\r\n        \r\n        return true;\r\n    }\r\n    // the receiving client will start the transfer\r\n    function startTransfer(bytes memory assetInfo, uint assetCost, bytes memory transferAddress) public isRegistered {\r\n        require(!activeTransfers[transferAddress].active, \"Transfer already active\");\r\n\r\n        activeTransfers[transferAddress] = transferInfo(assetCost, assetInfo, false, true);\r\n    }\r\n    // once the transfer has been started the sending client can send the payment for the asset and information about the asset\r\n    function sendTransfer(bytes memory assetInfo, bytes memory transferAddress) public payable isRegistered {\r\n        transferInfo memory transfer = activeTransfers[transferAddress];\r\n\r\n        require(transfer.assetCost == msg.value &&\r\n                compareBytes(transfer.assetInfo, assetInfo) &&\r\n                transfer.complete == false, \"Transfer does not exist\");\r\n\r\n        transfer.complete = true;\r\n        activeTransfers[transferAddress] = transfer;\r\n    }\r\n    // if the correct asset and payment were sent by the sending client then the transfer can be closed by the receiving client\r\n    function confirmTransfer(bytes memory transferAddress) public payable isRegistered {\r\n        transferInfo memory transfer = activeTransfers[transferAddress];\r\n\r\n        require(transfer.complete == true, \"Transfer must be complete to confirm\");\r\n\r\n        payable(msg.sender).transfer(transfer.assetCost);\r\n        delete activeTransfers[transferAddress];\r\n    }\r\n}",
  "sourcePath": "C:\\Users\\Avery\\dev\\javascript\\truffle\\project-dapp\\contract\\contracts\\AssetTransfer.sol",
  "compiler": {
    "name": "solc",
    "version": "0.7.0+commit.9e61f92b.Emscripten.clang"
  },
  "schemaVersion": "3.4.16",
  "updatedAt": "2023-12-06T00:00:13.214Z",
  "networkType": "ethereum",
  "devdoc": {
    "kind": "dev",
    "methods": {},
    "version": 1
  },
  "userdoc": {
    "kind": "user",
    "methods": {},
    "version": 1
  }
}