{
  "contractName": "AssetTransfer",
  "abi": [
    {
      "inputs": [],
      "stateMutability": "nonpayable",
      "type": "constructor"
    },
    {
      "inputs": [
        {
          "internalType": "address",
          "name": "client",
          "type": "address"
        }
      ],
      "name": "registerClient",
      "outputs": [],
      "stateMutability": "nonpayable",
      "type": "function"
    },
    {
      "inputs": [
        {
          "internalType": "bytes",
          "name": "assetInfo",
          "type": "bytes"
        },
        {
          "internalType": "uint256",
          "name": "assetCost",
          "type": "uint256"
        },
        {
          "internalType": "bytes",
          "name": "transferAddress",
          "type": "bytes"
        }
      ],
      "name": "startTransfer",
      "outputs": [],
      "stateMutability": "nonpayable",
      "type": "function"
    },
    {
      "inputs": [
        {
          "internalType": "bytes",
          "name": "assetInfo",
          "type": "bytes"
        },
        {
          "internalType": "bytes",
          "name": "transferAddress",
          "type": "bytes"
        }
      ],
      "name": "sendTransfer",
      "outputs": [
        {
          "internalType": "bool",
          "name": "",
          "type": "bool"
        }
      ],
      "stateMutability": "payable",
      "type": "function",
      "payable": true
    },
    {
      "inputs": [
        {
          "internalType": "bytes",
          "name": "transferAddress",
          "type": "bytes"
        }
      ],
      "name": "confirmTransfer",
      "outputs": [
        {
          "internalType": "bool",
          "name": "",
          "type": "bool"
        }
      ],
      "stateMutability": "payable",
      "type": "function",
      "payable": true
    }
  ],
  "bytecode": "0x608060405234801561001057600080fd5b5033600260006101000a81548173ffffffffffffffffffffffffffffffffffffffff021916908373ffffffffffffffffffffffffffffffffffffffff160217905550610e86806100616000396000f3fe60806040526004361061003f5760003560e01c806342a67b7f146100445780635a9a8fb0146100955780635caa71cd146101fe578063b8dc793c14610366575b600080fd5b34801561005057600080fd5b506100936004803603602081101561006757600080fd5b81019080803573ffffffffffffffffffffffffffffffffffffffff169060200190929190505050610437565b005b3480156100a157600080fd5b506101fc600480360360608110156100b857600080fd5b81019080803590602001906401000000008111156100d557600080fd5b8201836020820111156100e757600080fd5b8035906020019184600183028401116401000000008311171561010957600080fd5b91908080601f016020809104026020016040519081016040528093929190818152602001838380828437600081840152601f19601f820116905080830192505050505050509192919290803590602001909291908035906020019064010000000081111561017657600080fd5b82018360208201111561018857600080fd5b803590602001918460018302840111640100000000831117156101aa57600080fd5b91908080601f016020809104026020016040519081016040528093929190818152602001838380828437600081840152601f19601f8201169050808301925050505050505091929192905050506104eb565b005b61034e6004803603604081101561021457600080fd5b810190808035906020019064010000000081111561023157600080fd5b82018360208201111561024357600080fd5b8035906020019184600183028401116401000000008311171561026557600080fd5b91908080601f016020809104026020016040519081016040528093929190818152602001838380828437600081840152601f19601f820116905080830192505050505050509192919290803590602001906401000000008111156102c857600080fd5b8201836020820111156102da57600080fd5b803590602001918460018302840111640100000000831117156102fc57600080fd5b91908080601f016020809104026020016040519081016040528093929190818152602001838380828437600081840152601f19601f8201169050808301925050505050505091929192905050506106cb565b60405180821515815260200191505060405180910390f35b61041f6004803603602081101561037c57600080fd5b810190808035906020019064010000000081111561039957600080fd5b8201836020820111156103ab57600080fd5b803590602001918460018302840111640100000000831117156103cd57600080fd5b91908080601f016020809104026020016040519081016040528093929190818152602001838380828437600081840152601f19601f8201169050808301925050505050505091929192905050506109b4565b60405180821515815260200191505060405180910390f35b600260009054906101000a900473ffffffffffffffffffffffffffffffffffffffff1673ffffffffffffffffffffffffffffffffffffffff163373ffffffffffffffffffffffffffffffffffffffff161461049157600080fd5b60018060008373ffffffffffffffffffffffffffffffffffffffff1673ffffffffffffffffffffffffffffffffffffffff16815260200190815260200160002060006101000a81548160ff02191690831515021790555050565b60011515600160003373ffffffffffffffffffffffffffffffffffffffff1673ffffffffffffffffffffffffffffffffffffffff16815260200190815260200160002060009054906101000a900460ff1615151461054857600080fd5b6000816040518082805190602001908083835b6020831061057e578051825260208201915060208101905060208303925061055b565b6001836020036101000a038019825116818451168082178552505050505050905001915050908152602001604051809103902060020160019054906101000a900460ff16156105cc57600080fd5b6040518060800160405280838152602001848152602001600015158152602001600115158152506000826040518082805190602001908083835b602083106106295780518252602082019150602081019050602083039250610606565b6001836020036101000a0380198251168184511680821785525050505050509050019150509081526020016040518091039020600082015181600001556020820151816001019080519060200190610682929190610d3f565b5060408201518160020160006101000a81548160ff02191690831515021790555060608201518160020160016101000a81548160ff021916908315150217905550905050505050565b600060011515600160003373ffffffffffffffffffffffffffffffffffffffff1673ffffffffffffffffffffffffffffffffffffffff16815260200190815260200160002060009054906101000a900460ff1615151461072a57600080fd5b610732610dbf565b6000836040518082805190602001908083835b602083106107685780518252602082019150602081019050602083039250610745565b6001836020036101000a038019825116818451168082178552505050505050905001915050908152602001604051809103902060405180608001604052908160008201548152602001600182018054600181600116156101000203166002900480601f0160208091040260200160405190810160405280929190818152602001828054600181600116156101000203166002900480156108495780601f1061081e57610100808354040283529160200191610849565b820191906000526020600020905b81548152906001019060200180831161082c57829003601f168201915b505050505081526020016002820160009054906101000a900460ff161515151581526020016002820160019054906101000a900460ff16151515158152505090503481600001511480156108a757506108a6816020015185610c89565b5b80156108bb57506000151581604001511515145b6108c457600080fd5b6001816040019015159081151581525050806000846040518082805190602001908083835b6020831061090c57805182526020820191506020810190506020830392506108e9565b6001836020036101000a0380198251168184511680821785525050505050509050019150509081526020016040518091039020600082015181600001556020820151816001019080519060200190610965929190610d3f565b5060408201518160020160006101000a81548160ff02191690831515021790555060608201518160020160016101000a81548160ff021916908315150217905550905050600191505092915050565b600060011515600160003373ffffffffffffffffffffffffffffffffffffffff1673ffffffffffffffffffffffffffffffffffffffff16815260200190815260200160002060009054906101000a900460ff16151514610a1357600080fd5b610a1b610dbf565b6000836040518082805190602001908083835b60208310610a515780518252602082019150602081019050602083039250610a2e565b6001836020036101000a038019825116818451168082178552505050505050905001915050908152602001604051809103902060405180608001604052908160008201548152602001600182018054600181600116156101000203166002900480601f016020809104026020016040519081016040528092919081815260200182805460018160011615610100020316600290048015610b325780601f10610b0757610100808354040283529160200191610b32565b820191906000526020600020905b815481529060010190602001808311610b1557829003601f168201915b505050505081526020016002820160009054906101000a900460ff161515151581526020016002820160019054906101000a900460ff1615151515815250509050600115158160400151151514610b8857600080fd5b3373ffffffffffffffffffffffffffffffffffffffff166108fc82600001519081150290604051600060405180830381858888f19350505050158015610bd2573d6000803e3d6000fd5b506000836040518082805190602001908083835b60208310610c095780518252602082019150602081019050602083039250610be6565b6001836020036101000a0380198251168184511680821785525050505050509050019150509081526020016040518091039020600080820160009055600182016000610c559190610deb565b6002820160006101000a81549060ff02191690556002820160016101000a81549060ff021916905550506001915050919050565b60008151835114610c9957600080fd5b60005b8351811015610d3357828181518110610cb157fe5b602001015160f81c60f81b7effffffffffffffffffffffffffffffffffffffffffffffffffffffffffffff1916848281518110610cea57fe5b602001015160f81c60f81b7effffffffffffffffffffffffffffffffffffffffffffffffffffffffffffff191614610d26576000915050610d39565b8080600101915050610c9c565b50600190505b92915050565b828054600181600116156101000203166002900490600052602060002090601f016020900481019282601f10610d8057805160ff1916838001178555610dae565b82800160010185558215610dae579182015b82811115610dad578251825591602001919060010190610d92565b5b509050610dbb9190610e33565b5090565b604051806080016040528060008152602001606081526020016000151581526020016000151581525090565b50805460018160011615610100020316600290046000825580601f10610e115750610e30565b601f016020900490600052602060002090810190610e2f9190610e33565b5b50565b5b80821115610e4c576000816000905550600101610e34565b509056fea2646970667358221220cf0055234b7d8190ca1e6864a8c711752c670f0b03909340da9355a3c649f82964736f6c63430007000033",
  "immutableReferences": {},
  "source": "// SPDX-License-Identifier: GPL-3.0\r\n\r\npragma solidity >=0.4.22 <0.9.0;\r\n\r\ncontract AssetTransfer {\r\n    struct transferInfo {\r\n        uint assetCost;\r\n        bytes assetInfo;\r\n        bool complete;\r\n        bool active;\r\n    }\r\n    mapping(bytes => transferInfo) private activeTransfers;\r\n    mapping(address => bool) private registeredClients;\r\n    address private admin;\r\n\r\n    modifier onlyAdmin() {\r\n        require(msg.sender == admin);\r\n        _;\r\n    }\r\n    modifier isRegistered() {\r\n        require(registeredClients[msg.sender] == true);\r\n        _;\r\n    }\r\n\r\n    constructor() {\r\n        admin = msg.sender;\r\n    }\r\n    function registerClient(address client) public onlyAdmin {\r\n        registeredClients[client] = true;\r\n    }\r\n    function compareBytes(bytes memory a, bytes memory b) internal pure returns (bool) {\r\n        require(a.length == b.length);\r\n\r\n        for(uint i = 0; i < a.length; i++) {\r\n            if(a[i] != b[i]) {\r\n                return false;\r\n            }\r\n        }\r\n        \r\n        return true;\r\n    }\r\n    // the receiving client will start the transfer\r\n    function startTransfer(bytes memory assetInfo, uint assetCost, bytes memory transferAddress) public isRegistered {\r\n        require(!activeTransfers[transferAddress].active);\r\n        \r\n        activeTransfers[transferAddress] = transferInfo(assetCost, assetInfo, false, true);\r\n    }\r\n    // once the transfer has been started the sending client can send the payment for the asset and information about the asset\r\n    function sendTransfer(bytes memory assetInfo, bytes memory transferAddress) public payable isRegistered returns (bool) {\r\n        transferInfo memory transfer = activeTransfers[transferAddress];\r\n\r\n        require(transfer.assetCost == msg.value &&\r\n                compareBytes(transfer.assetInfo, assetInfo) &&\r\n                transfer.complete == false);\r\n\r\n        transfer.complete = true;\r\n        activeTransfers[transferAddress] = transfer;\r\n\r\n        return true;\r\n    }\r\n    // if the correct asset and payment were sent by the sending client then the transfer can be closed by the receiving client\r\n    function confirmTransfer(bytes memory transferAddress) public payable isRegistered returns (bool) {\r\n        transferInfo memory transfer = activeTransfers[transferAddress];\r\n\r\n        require(transfer.complete == true);\r\n\r\n        payable(msg.sender).transfer(transfer.assetCost);\r\n        delete activeTransfers[transferAddress];\r\n\r\n        return true;\r\n    }\r\n}",
  "sourcePath": "C:\\Users\\Avery\\dev\\javascript\\truffle\\project-dapp\\contract\\contracts\\AssetTransfer.sol",
  "compiler": {
    "name": "solc",
    "version": "0.7.0+commit.9e61f92b.Emscripten.clang"
  },
  "schemaVersion": "3.4.16",
  "updatedAt": "2023-11-27T21:18:58.523Z",
  "networkType": "ethereum",
  "devdoc": {
    "kind": "dev",
    "methods": {},
    "version": 1
  },
  "userdoc": {
    "kind": "user",
    "methods": {},
    "version": 1
  }
}