{
  "contractName": "AssetTransfer",
  "abi": [
    {
      "inputs": [],
      "stateMutability": "nonpayable",
      "type": "constructor"
    },
    {
      "inputs": [
        {
          "internalType": "address",
          "name": "client",
          "type": "address"
        }
      ],
      "name": "registerClient",
      "outputs": [],
      "stateMutability": "nonpayable",
      "type": "function"
    },
    {
      "inputs": [
        {
          "internalType": "uint256",
          "name": "assetCost",
          "type": "uint256"
        },
        {
          "internalType": "string",
          "name": "transferAddress",
          "type": "string"
        }
      ],
      "name": "startTransfer",
      "outputs": [],
      "stateMutability": "nonpayable",
      "type": "function"
    },
    {
      "inputs": [
        {
          "internalType": "string",
          "name": "transferAddress",
          "type": "string"
        }
      ],
      "name": "sendTransfer",
      "outputs": [],
      "stateMutability": "payable",
      "type": "function",
      "payable": true
    },
    {
      "inputs": [
        {
          "internalType": "string",
          "name": "transferAddress",
          "type": "string"
        }
      ],
      "name": "confirmTransfer",
      "outputs": [],
      "stateMutability": "payable",
      "type": "function",
      "payable": true
    }
  ],
  "bytecode": "0x608060405234801561001057600080fd5b5033600260006101000a81548173ffffffffffffffffffffffffffffffffffffffff021916908373ffffffffffffffffffffffffffffffffffffffff160217905550610e82806100616000396000f3fe60806040526004361061003f5760003560e01c806340b965471461004457806342a67b7f14610116578063b345765214610167578063c88a11e414610222575b600080fd5b34801561005057600080fd5b506101146004803603604081101561006757600080fd5b81019080803590602001909291908035906020019064010000000081111561008e57600080fd5b8201836020820111156100a057600080fd5b803590602001918460018302840111640100000000831117156100c257600080fd5b91908080601f016020809104026020016040519081016040528093929190818152602001838380828437600081840152601f19601f8201169050808301925050505050505091929192905050506102dd565b005b34801561012257600080fd5b506101656004803603602081101561013957600080fd5b81019080803573ffffffffffffffffffffffffffffffffffffffff1690602001909291905050506105ce565b005b6102206004803603602081101561017d57600080fd5b810190808035906020019064010000000081111561019a57600080fd5b8201836020820111156101ac57600080fd5b803590602001918460018302840111640100000000831117156101ce57600080fd5b91908080601f016020809104026020016040519081016040528093929190818152602001838380828437600081840152601f19601f8201169050808301925050505050505091929192905050506106eb565b005b6102db6004803603602081101561023857600080fd5b810190808035906020019064010000000081111561025557600080fd5b82018360208201111561026757600080fd5b8035906020019184600183028401116401000000008311171561028957600080fd5b91908080601f016020809104026020016040519081016040528093929190818152602001838380828437600081840152601f19601f820116905080830192505050505050509192919290505050610a65565b005b60011515600160003373ffffffffffffffffffffffffffffffffffffffff1673ffffffffffffffffffffffffffffffffffffffff16815260200190815260200160002060009054906101000a900460ff161515146103a3576040517f08c379a00000000000000000000000000000000000000000000000000000000081526004018080602001828103825260198152602001807f436c69656e74206d75737420626520726567697374657265640000000000000081525060200191505060405180910390fd5b6000816040518082805190602001908083835b602083106103d957805182526020820191506020810190506020830392506103b6565b6001836020036101000a038019825116818451168082178552505050505050905001915050908152602001604051809103902060020160019054906101000a900460ff1615610490576040517f08c379a00000000000000000000000000000000000000000000000000000000081526004018080602001828103825260178152602001807f5472616e7366657220616c72656164792061637469766500000000000000000081525060200191505060405180910390fd5b60405180608001604052803373ffffffffffffffffffffffffffffffffffffffff168152602001838152602001600015158152602001600115158152506000826040518082805190602001908083835b6020831061050357805182526020820191506020810190506020830392506104e0565b6001836020036101000a038019825116818451168082178552505050505050905001915050908152602001604051809103902060008201518160000160006101000a81548173ffffffffffffffffffffffffffffffffffffffff021916908373ffffffffffffffffffffffffffffffffffffffff1602179055506020820151816001015560408201518160020160006101000a81548160ff02191690831515021790555060608201518160020160016101000a81548160ff0219169083151502179055509050505050565b600260009054906101000a900473ffffffffffffffffffffffffffffffffffffffff1673ffffffffffffffffffffffffffffffffffffffff163373ffffffffffffffffffffffffffffffffffffffff1614610691576040517f08c379a000000000000000000000000000000000000000000000000000000000815260040180806020018281038252600d8152602001807f4163636573732044656e6965640000000000000000000000000000000000000081525060200191505060405180910390fd5b60018060008373ffffffffffffffffffffffffffffffffffffffff1673ffffffffffffffffffffffffffffffffffffffff16815260200190815260200160002060006101000a81548160ff02191690831515021790555050565b60011515600160003373ffffffffffffffffffffffffffffffffffffffff1673ffffffffffffffffffffffffffffffffffffffff16815260200190815260200160002060009054906101000a900460ff161515146107b1576040517f08c379a00000000000000000000000000000000000000000000000000000000081526004018080602001828103825260198152602001807f436c69656e74206d75737420626520726567697374657265640000000000000081525060200191505060405180910390fd5b6107b9610e0a565b6000826040518082805190602001908083835b602083106107ef57805182526020820191506020810190506020830392506107cc565b6001836020036101000a03801982511681845116808217855250505050505090500191505090815260200160405180910390206040518060800160405290816000820160009054906101000a900473ffffffffffffffffffffffffffffffffffffffff1673ffffffffffffffffffffffffffffffffffffffff1673ffffffffffffffffffffffffffffffffffffffff168152602001600182015481526020016002820160009054906101000a900460ff161515151581526020016002820160019054906101000a900460ff16151515158152505090503481602001511480156108e057506000151581604001511515145b610952576040517f08c379a00000000000000000000000000000000000000000000000000000000081526004018080602001828103825260118152602001807f41737365742073656e64206661696c656400000000000000000000000000000081525060200191505060405180910390fd5b6001816040019015159081151581525050806000836040518082805190602001908083835b6020831061099a5780518252602082019150602081019050602083039250610977565b6001836020036101000a038019825116818451168082178552505050505050905001915050908152602001604051809103902060008201518160000160006101000a81548173ffffffffffffffffffffffffffffffffffffffff021916908373ffffffffffffffffffffffffffffffffffffffff1602179055506020820151816001015560408201518160020160006101000a81548160ff02191690831515021790555060608201518160020160016101000a81548160ff0219169083151502179055509050505050565b60011515600160003373ffffffffffffffffffffffffffffffffffffffff1673ffffffffffffffffffffffffffffffffffffffff16815260200190815260200160002060009054906101000a900460ff16151514610b2b576040517f08c379a00000000000000000000000000000000000000000000000000000000081526004018080602001828103825260198152602001807f436c69656e74206d75737420626520726567697374657265640000000000000081525060200191505060405180910390fd5b610b33610e0a565b6000826040518082805190602001908083835b60208310610b695780518252602082019150602081019050602083039250610b46565b6001836020036101000a03801982511681845116808217855250505050505090500191505090815260200160405180910390206040518060800160405290816000820160009054906101000a900473ffffffffffffffffffffffffffffffffffffffff1673ffffffffffffffffffffffffffffffffffffffff1673ffffffffffffffffffffffffffffffffffffffff168152602001600182015481526020016002820160009054906101000a900460ff161515151581526020016002820160019054906101000a900460ff16151515158152505090503373ffffffffffffffffffffffffffffffffffffffff16816000015173ffffffffffffffffffffffffffffffffffffffff16148015610c8657506001151581604001511515145b610cf8576040517f08c379a000000000000000000000000000000000000000000000000000000000815260040180806020018281038252601c8152602001807f5472616e7366657220636f6e6669726d6174696f6e206661696c65640000000081525060200191505060405180910390fd5b3373ffffffffffffffffffffffffffffffffffffffff166108fc82602001519081150290604051600060405180830381858888f19350505050158015610d42573d6000803e3d6000fd5b506000826040518082805190602001908083835b60208310610d795780518252602082019150602081019050602083039250610d56565b6001836020036101000a0380198251168184511680821785525050505050509050019150509081526020016040518091039020600080820160006101000a81549073ffffffffffffffffffffffffffffffffffffffff021916905560018201600090556002820160006101000a81549060ff02191690556002820160016101000a81549060ff021916905550505050565b6040518060800160405280600073ffffffffffffffffffffffffffffffffffffffff16815260200160008152602001600015158152602001600015158152509056fea26469706673582212205ce9e982d477f378c9998a225e47855e010aeb3f69fdc24554bb6af372461ff964736f6c63430007000033",
  "immutableReferences": {},
  "source": "// SPDX-License-Identifier: GPL-3.0\r\n\r\npragma solidity >=0.4.22 <0.9.0;\r\n\r\ncontract AssetTransfer {\r\n    struct transferInfo {\r\n        address receiverAddr;\r\n        uint assetCost;\r\n        bool complete;\r\n        bool active;\r\n    }\r\n    mapping(string => transferInfo) private activeTransfers;\r\n    mapping(address => bool) private registeredClients;\r\n    address private admin;\r\n\r\n    modifier onlyAdmin() {\r\n        require(msg.sender == admin, \"Access Denied\");\r\n        _;\r\n    }\r\n    modifier isRegistered() {\r\n        require(registeredClients[msg.sender] == true, \"Client must be registered\");\r\n        _;\r\n    }\r\n\r\n    constructor() {\r\n        admin = msg.sender;\r\n    }\r\n    function registerClient(address client) public onlyAdmin {\r\n        registeredClients[client] = true;\r\n    }\r\n    // the receiving client will start the transfer\r\n    function startTransfer(uint assetCost, string memory transferAddress) public isRegistered {\r\n        require(!activeTransfers[transferAddress].active, \"Transfer already active\");\r\n\r\n        activeTransfers[transferAddress] = transferInfo(msg.sender, assetCost, false, true);\r\n    }\r\n    // once the transfer has been started the sending client can send the payment for the asset and information about the asset\r\n    function sendTransfer(string memory transferAddress) public payable isRegistered {\r\n        transferInfo memory transfer = activeTransfers[transferAddress];\r\n\r\n        require(transfer.assetCost == msg.value &&\r\n                transfer.complete == false, \"Asset send failed\");\r\n\r\n        transfer.complete = true;\r\n        activeTransfers[transferAddress] = transfer;\r\n    }\r\n    // if the correct asset and payment were sent by the sending client then the transfer can be closed by the receiving client\r\n    function confirmTransfer(string memory transferAddress) public payable isRegistered {\r\n        transferInfo memory transfer = activeTransfers[transferAddress];\r\n\r\n        require(transfer.receiverAddr == msg.sender && transfer.complete == true, \"Transfer confirmation failed\");\r\n\r\n        payable(msg.sender).transfer(transfer.assetCost);\r\n        delete activeTransfers[transferAddress];\r\n    }\r\n}",
  "sourcePath": "C:\\Users\\Avery\\dev\\javascript\\truffle\\project-dapp\\contract\\contracts\\AssetTransfer.sol",
  "compiler": {
    "name": "solc",
    "version": "0.7.0+commit.9e61f92b.Emscripten.clang"
  },
  "schemaVersion": "3.4.16",
  "updatedAt": "2023-12-08T20:54:13.806Z",
  "networkType": "ethereum",
  "devdoc": {
    "kind": "dev",
    "methods": {},
    "version": 1
  },
  "userdoc": {
    "kind": "user",
    "methods": {},
    "version": 1
  }
}