{
  "contractName": "AssetTransfer",
  "abi": [
    {
      "inputs": [],
      "stateMutability": "nonpayable",
      "type": "constructor"
    },
    {
      "inputs": [
        {
          "internalType": "address",
          "name": "client",
          "type": "address"
        }
      ],
      "name": "registerClient",
      "outputs": [],
      "stateMutability": "nonpayable",
      "type": "function"
    },
    {
      "inputs": [
        {
          "internalType": "uint256",
          "name": "assetCost",
          "type": "uint256"
        },
        {
          "internalType": "string",
          "name": "transferAddress",
          "type": "string"
        }
      ],
      "name": "startTransfer",
      "outputs": [],
      "stateMutability": "nonpayable",
      "type": "function"
    },
    {
      "inputs": [
        {
          "internalType": "string",
          "name": "transferAddress",
          "type": "string"
        }
      ],
      "name": "sendTransfer",
      "outputs": [],
      "stateMutability": "payable",
      "type": "function",
      "payable": true
    },
    {
      "inputs": [
        {
          "internalType": "string",
          "name": "transferAddress",
          "type": "string"
        }
      ],
      "name": "confirmTransfer",
      "outputs": [],
      "stateMutability": "payable",
      "type": "function",
      "payable": true
    }
  ],
  "bytecode": "0x608060405234801561001057600080fd5b5033600260006101000a81548173ffffffffffffffffffffffffffffffffffffffff021916908373ffffffffffffffffffffffffffffffffffffffff160217905550610cb4806100616000396000f3fe60806040526004361061003f5760003560e01c806340b965471461004457806342a67b7f14610116578063b345765214610167578063c88a11e414610222575b600080fd5b34801561005057600080fd5b506101146004803603604081101561006757600080fd5b81019080803590602001909291908035906020019064010000000081111561008e57600080fd5b8201836020820111156100a057600080fd5b803590602001918460018302840111640100000000831117156100c257600080fd5b91908080601f016020809104026020016040519081016040528093929190818152602001838380828437600081840152601f19601f8201169050808301925050505050505091929192905050506102dd565b005b34801561012257600080fd5b506101656004803603602081101561013957600080fd5b81019080803573ffffffffffffffffffffffffffffffffffffffff16906020019092919050505061056b565b005b6102206004803603602081101561017d57600080fd5b810190808035906020019064010000000081111561019a57600080fd5b8201836020820111156101ac57600080fd5b803590602001918460018302840111640100000000831117156101ce57600080fd5b91908080601f016020809104026020016040519081016040528093929190818152602001838380828437600081840152601f19601f820116905080830192505050505050509192919290505050610688565b005b6102db6004803603602081101561023857600080fd5b810190808035906020019064010000000081111561025557600080fd5b82018360208201111561026757600080fd5b8035906020019184600183028401116401000000008311171561028957600080fd5b91908080601f016020809104026020016040519081016040528093929190818152602001838380828437600081840152601f19601f820116905080830192505050505050509192919290505050610965565b005b60011515600160003373ffffffffffffffffffffffffffffffffffffffff1673ffffffffffffffffffffffffffffffffffffffff16815260200190815260200160002060009054906101000a900460ff161515146103a3576040517f08c379a00000000000000000000000000000000000000000000000000000000081526004018080602001828103825260198152602001807f436c69656e74206d75737420626520726567697374657265640000000000000081525060200191505060405180910390fd5b6000816040518082805190602001908083835b602083106103d957805182526020820191506020810190506020830392506103b6565b6001836020036101000a038019825116818451168082178552505050505050905001915050908152602001604051809103902060010160019054906101000a900460ff1615610490576040517f08c379a00000000000000000000000000000000000000000000000000000000081526004018080602001828103825260178152602001807f5472616e7366657220616c72656164792061637469766500000000000000000081525060200191505060405180910390fd5b6040518060600160405280838152602001600015158152602001600115158152506000826040518082805190602001908083835b602083106104e757805182526020820191506020810190506020830392506104c4565b6001836020036101000a03801982511681845116808217855250505050505090500191505090815260200160405180910390206000820151816000015560208201518160010160006101000a81548160ff02191690831515021790555060408201518160010160016101000a81548160ff0219169083151502179055509050505050565b600260009054906101000a900473ffffffffffffffffffffffffffffffffffffffff1673ffffffffffffffffffffffffffffffffffffffff163373ffffffffffffffffffffffffffffffffffffffff161461062e576040517f08c379a000000000000000000000000000000000000000000000000000000000815260040180806020018281038252600d8152602001807f4163636573732044656e6965640000000000000000000000000000000000000081525060200191505060405180910390fd5b60018060008373ffffffffffffffffffffffffffffffffffffffff1673ffffffffffffffffffffffffffffffffffffffff16815260200190815260200160002060006101000a81548160ff02191690831515021790555050565b60011515600160003373ffffffffffffffffffffffffffffffffffffffff1673ffffffffffffffffffffffffffffffffffffffff16815260200190815260200160002060009054906101000a900460ff1615151461074e576040517f08c379a00000000000000000000000000000000000000000000000000000000081526004018080602001828103825260198152602001807f436c69656e74206d75737420626520726567697374657265640000000000000081525060200191505060405180910390fd5b610756610c35565b6000826040518082805190602001908083835b6020831061078c5780518252602082019150602081019050602083039250610769565b6001836020036101000a0380198251168184511680821785525050505050509050019150509081526020016040518091039020604051806060016040529081600082015481526020016001820160009054906101000a900460ff161515151581526020016001820160019054906101000a900460ff161515151581525050905034816000015114801561082757506000151581602001511515145b610899576040517f08c379a00000000000000000000000000000000000000000000000000000000081526004018080602001828103825260178152602001807f5472616e7366657220646f6573206e6f7420657869737400000000000000000081525060200191505060405180910390fd5b6001816020019015159081151581525050806000836040518082805190602001908083835b602083106108e157805182526020820191506020810190506020830392506108be565b6001836020036101000a03801982511681845116808217855250505050505090500191505090815260200160405180910390206000820151816000015560208201518160010160006101000a81548160ff02191690831515021790555060408201518160010160016101000a81548160ff0219169083151502179055509050505050565b60011515600160003373ffffffffffffffffffffffffffffffffffffffff1673ffffffffffffffffffffffffffffffffffffffff16815260200190815260200160002060009054906101000a900460ff16151514610a2b576040517f08c379a00000000000000000000000000000000000000000000000000000000081526004018080602001828103825260198152602001807f436c69656e74206d75737420626520726567697374657265640000000000000081525060200191505060405180910390fd5b610a33610c35565b6000826040518082805190602001908083835b60208310610a695780518252602082019150602081019050602083039250610a46565b6001836020036101000a0380198251168184511680821785525050505050509050019150509081526020016040518091039020604051806060016040529081600082015481526020016001820160009054906101000a900460ff161515151581526020016001820160019054906101000a900460ff1615151515815250509050600115158160200151151514610b4a576040517f08c379a0000000000000000000000000000000000000000000000000000000008152600401808060200182810382526024815260200180610c5b6024913960400191505060405180910390fd5b3373ffffffffffffffffffffffffffffffffffffffff166108fc82600001519081150290604051600060405180830381858888f19350505050158015610b94573d6000803e3d6000fd5b506000826040518082805190602001908083835b60208310610bcb5780518252602082019150602081019050602083039250610ba8565b6001836020036101000a03801982511681845116808217855250505050505090500191505090815260200160405180910390206000808201600090556001820160006101000a81549060ff02191690556001820160016101000a81549060ff021916905550505050565b604051806060016040528060008152602001600015158152602001600015158152509056fe5472616e73666572206d75737420626520636f6d706c65746520746f20636f6e6669726da2646970667358221220f690e936a91c123a47457e4b3268cae2391040206545591d8bcee06a25a91da864736f6c63430007000033",
  "immutableReferences": {},
  "source": "// SPDX-License-Identifier: GPL-3.0\r\n\r\npragma solidity >=0.4.22 <0.9.0;\r\n\r\ncontract AssetTransfer {\r\n    struct transferInfo {\r\n        uint assetCost;\r\n        bool complete;\r\n        bool active;\r\n    }\r\n    mapping(string => transferInfo) private activeTransfers;\r\n    mapping(address => bool) private registeredClients;\r\n    address private admin;\r\n\r\n    modifier onlyAdmin() {\r\n        require(msg.sender == admin, \"Access Denied\");\r\n        _;\r\n    }\r\n    modifier isRegistered() {\r\n        require(registeredClients[msg.sender] == true, \"Client must be registered\");\r\n        _;\r\n    }\r\n\r\n    constructor() {\r\n        admin = msg.sender;\r\n    }\r\n    function registerClient(address client) public onlyAdmin {\r\n        registeredClients[client] = true;\r\n    }\r\n    // the receiving client will start the transfer\r\n    function startTransfer(uint assetCost, string memory transferAddress) public isRegistered {\r\n        require(!activeTransfers[transferAddress].active, \"Transfer already active\");\r\n\r\n        activeTransfers[transferAddress] = transferInfo(assetCost, false, true);\r\n    }\r\n    // once the transfer has been started the sending client can send the payment for the asset and information about the asset\r\n    function sendTransfer(string memory transferAddress) public payable isRegistered {\r\n        transferInfo memory transfer = activeTransfers[transferAddress];\r\n\r\n        require(transfer.assetCost == msg.value &&\r\n                transfer.complete == false, \"Transfer does not exist\");\r\n\r\n        transfer.complete = true;\r\n        activeTransfers[transferAddress] = transfer;\r\n    }\r\n    // if the correct asset and payment were sent by the sending client then the transfer can be closed by the receiving client\r\n    function confirmTransfer(string memory transferAddress) public payable isRegistered {\r\n        transferInfo memory transfer = activeTransfers[transferAddress];\r\n\r\n        require(transfer.complete == true, \"Transfer must be complete to confirm\");\r\n\r\n        payable(msg.sender).transfer(transfer.assetCost);\r\n        delete activeTransfers[transferAddress];\r\n    }\r\n}",
  "sourcePath": "C:\\Users\\Avery\\dev\\javascript\\truffle\\project-dapp\\contract\\contracts\\AssetTransfer.sol",
  "compiler": {
    "name": "solc",
    "version": "0.7.0+commit.9e61f92b.Emscripten.clang"
  },
  "schemaVersion": "3.4.16",
  "updatedAt": "2023-12-07T21:02:15.759Z",
  "networkType": "ethereum",
  "devdoc": {
    "kind": "dev",
    "methods": {},
    "version": 1
  },
  "userdoc": {
    "kind": "user",
    "methods": {},
    "version": 1
  }
}